:100000000C942A000C943C000C943C000C943C0092
:100010000C943C000C943C000C943C000C943C0070
:100020000C943C000C943C000C943C000C943C0060
:100030000C943C000C943C000C943C000C943C0050
:100040000C943C000C943C000C943C000C943C0040
:100050000C943C0011241FBECFE5D4E0DEBFCDBF21
:1000600010E0A0E6B0E001C01D92A136B107E1F7B3
:100070000E94A0000C94AC000C94000081E08BBBAB
:10008000109260008FE996E8A1E081509040A04076
:10009000E1F700C000008BB3880F8BBB809160003C
:1000A0008F5F80936000883068F3089580E88BBB91
:1000B000109260008FE996E8A1E081509040A04046
:1000C000E1F700C000008BB386958BBB8091600088
:1000D0008F5F80936000883068F3089581E08BBB68
:1000E000109260008FE996E8A1E081509040A04016
:1000F000E1F700C000009BB38BB3880F892B8BBB4B
:10010000809160008F5F80936000883058F308957D
:100110008FEF8BBB109260008FE996E8A1E08150D1
:100120009040A040E1F700C000008BB386958BBBE8
:10013000809160008F5F80936000883068F308953D
:100140008FEF8ABB1BBA0E943E000E9456000E949D
:0C0150006E000E948800F7CFF894FFCFEB
:00000001FF
