:100000000C942A000C9436000C9434000C943400A8
:100010000C9434000C9434000C9434000C94340090
:100020000C9434000C9434000C9434000C94340080
:100030000C9434000C9434000C9434000C94340070
:100040000C9434000C9434000C9434000C94340060
:100050000C94340011241FBECFE5D4E0DEBFCDBF29
:100060000E946A000C946F000C9400001F920F9283
:100070000FB60F9211242F933F934F935F938F935B
:100080009F9395B381E0982795BB2FE936E841E02F
:10009000215030404040E1F700C0000095B389276F
:1000A00085BB9F918F915F914F913F912F910F90C1
:1000B0000FBE0F901F9018958FB78F778FBF8A98BC
:1000C0008BB780648BBF85B7836085BF8FB780682F
:1000D0008FBF08950E945C00A09AA898FFCFF89463
:0200E000FFCF50
:00000001FF
