:100000000C942A000C943C000C943C000C943C0092
:100010000C943C000C943C000C943C000C943C0070
:100020000C943C000C943E000C943C000C943C005E
:100030000C943C000C943C000C943C000C943C0050
:100040000C943C000C943C000C943C000C943C0040
:100050000C943C0011241FBECFE5D4E0DEBFCDBF21
:1000600010E0A0E6B0E001C01D92A136B107E1F7B3
:100070000E9461000C9467000C9400001F920F9284
:100080000FB60F9211248F939F93809160008F5F22
:1000900080936000823031F495B381E0892785BB7D
:1000A000109260009F918F910F900FBE0F901F9044
:1000B000189589B7816089BF12BE83B7856883BFF1
:1000C0000895A09AA89878940E945900FFCFF894B8
:0200D000FFCF60
:00000001FF
