:100000000C942A000C9434000C9434000C943400AA
:100010000C9434000C9434000C9434000C94340090
:100020000C9434000C9434000C9434000C94340080
:100030000C9434000C9434000C9434000C94340070
:100040000C9434000C9434000C9434000C94340060
:100050000C94340011241FBECFE5D4E0DEBFCDBF29
:100060000E943C000C9464000C94000093B79A66C4
:1000700093BF12BE8CBF0895889889988A98D09AA9
:10008000D19AD29AB99ABA9ABB9A1BBAC19AC29A11
:10009000809B07C01BBA80E40E943600C19AC298B8
:1000A000D99A819B07C01BBAD89A80E80E94360073
:1000B000C19AC298829BECCF1BBADA9A8AEF0E944F
:0C00C0003600C19AC298E4CFF894FFCF3C
:00000001FF
