:100000000C942A000C9434000C9434000C943400AA
:100010000C9434000C9434000C9434000C94340090
:100020000C9434000C9434000C9434000C94340080
:100030000C9434000C9434000C9434000C94340070
:100040000C9434000C9434000C9434000C94340060
:100050000C94340011241FBECFE5D4E0DEBFCDBF29
:100060000E943C000C945F000C94000012BE8CBFF8
:10007000BB9A8AE683BF089580EF8ABBA09AA19AB3
:10008000A89AA99AC89B06C0A99AA89880E40E9439
:100090003600F8CFC99B06C0A99AA89889E90E94A2
:1000A0003600F0CFCA9B06C0A99AA8988FEF0E948D
:1000B0003600E8CFCB9BE6CFA99AA89AE3CFF89475
:0200C000FFCF70
:00000001FF
