S012000063616C63756C61746F722E73726563E8
S11300000C943A000C944F000C944F000C944F0045
S11300100C944F000C944F000C944F000C944F0020
S11300200C944F000C944F000C944F000C944F0010
S11300300C944F000C944F000C944F000C944F0000
S11300400C944F000C944F000C944F000C944F00F0
S11300500C944F007A005C005E0060006200640053
S1130060660068006A006C006E0070007200740024
S11300707600780011241FBECFE5D4E0DEBFCDBFEB
S113008010E0A0E6B0E0E8EFF4E002C005900D92C5
S1130090A23FB107D9F70E94B7000C947A020C94DE
S11300A00000482F50E0FA013197E031F10518F5CE
S11300B0E65DFF4F0C94340288E0089589E00895CA
S11300C085E2089584E0089585E0089586E0089522
S11300D08AE2089581E0089582E0089583E0089516
S11300E08DE208958DE0089580E008958DE30895EC
S11300F08BE2089587E00895CF93DF93D0E0C0E0CA
S1130100E0E1F0E0B1E0A0E06D2F7C2F862F9F01AD
S1130110062E02C0220F331F0A94E2F72ABB209551
S11301202BBBC89B0EC04B2F5A2F942F29B330E002
S1130130042E02C0359527950A94E2F720FD09C0E4
S113014001C090E08F5F990F990F890F0E945100B1
S11301500BC04F5F5F4F4430510539F76F5F7F4FDE
S11301606430710599F6D0CFDF91CF9108950E9444
S11301709D0140E650E061E081E00E94190242E7FF
S113018050E061E082E00E94190245E850E061E03D
S113019083E00E9419020E947C008D30E1F72FE574
S11301A08AEE90E0215080409040E1F700C00000CA
S11301B00E9424020E947C00D82E61E081E00E940B
S11301C0FE01ED2CF12CC7010E94E0012FE58AEE1F
S11301D090E0215080409040E1F700C000000E9470
S11301E07C00C82F63E081E00E94FE018C2F0E94F6
S11301F0AC012FE58AEE90E0215080409040E1F779
S113020000C000000E947C00D82F65E081E00E94BD
S1130210FE010D2F10E0C8010E94E0012FE58AEED7
S113022090E0215080409040E1F700C000000E941F
S11302307C008D33E1F7CB3281F462E083E00E94ED
S1130240FE0147E950E063E083E00E941902C70120
S1130250800F911F0E94E00146C0CA32A1F462E0FF
S113026083E00E94FE0144EA50E063E083E00E94E0
S11302701902E09EC001E19E900DF09E900D1124A4
S11302800E94E00130C0C53209F5D1110DC044EB24
S113029050E063E083E00E94190245EC50E063E023
S11302A084E00E9419021FC062E083E00E94FE0104
S11302B042ED50E063E083E00E9419028D2D6D2F22
S11302C00E94280290E00E94E0010DC0CD3259F452
S11302D040EE50E061E083E00E941902C701801BF8
S11302E0910B0E94E0012FE38DE093E021508040C8
S11302F09040E1F700C000000E9424023ACF949895
S11303009698E9EFF0E03197F1F700C00000959A74
S1130310E9EFF0E03197F1F700C0000085BB89EF09
S113032090E00197F1F700C000009598E9EFF0E044
S11303303197F1F700C0000008958FEF84BB81B3BB
S1130340806781BB88E30E947F018EE00E947F0169
S113035081E00E947F010895949A9698E9EFF0E075
S11303603197F1F700C00000959AE9EFF0E031977A
S1130370F1F700C0000085BB89EF90E00197F1F729
S113038000C000009598E9EFF0E03197F1F700C064
S1130390000008950F931F93CF93FC01808188235D
S11303A059F08F01C0E00E94AC01CF5FF801EC0F5F
S11303B0F11D80818111F7CFCF911F910F91089585
S11303C0CF93DF93CDB7DEB760970FB6F894DEBF57
S11303D00FBECDBF4AE050E0BE016F5F7F4F0E9469
S11303E03A02CE0101960E94CA0160960FB6F894B3
S11303F0DEBF0FBECDBFDF91CF910895823061F093
S113040018F4813031F010C0833049F0843051F059
S11304100BC090E8960F08C090EC960F05C094E9C5
S1130420960F02C094ED960F892F80680E947F0179
S11304300895CF93DF93EA010E94FE01CE010E944A
S1130440CA01DF91CF91089581E00E947F01089550
S1130450991B79E004C0991F961708F0961B881F12
S11304607A95C9F780950895EE0FFF1F0590F491D2
S1130470E02D09944532510520F4423010F00C94DB
S11304804502FB011082CB010895BB274A3031F4A9
S1130490992322F4BDE2909581959F4F0C945102CB
S11304A0BB27FB015527AA27880F991FAA1FA4174A
S11304B010F0A41B83955051B9F7A05DAA3308F03E
S11304C0A95DA193009779F7B111B1931192CB0172
S11304D00C946A02DC01FC01672F71917723E1F728
S11304E0329704C07C916D9370836291AE17BF07FD
S10B04F0C8F30895F894FFCF4E
S11304F853494D504C452043414C43554C41544F6E
S113050852007365727665732074776F206E756D0B
S113051862657273005052455353204F4E20544F16
S1130528205354415254005448452053554D2049B2
S113053853203A0050524F44554354494F4E204992
S113054853203A006465766973696F6E2062792076
S11305587A65726F006973206E6F742076616C69B6
S113056864004449564953494F4E204953203A00A0
S11305785355425452414354494F4E204953203A0B
S105058800006D
S9030000FC
