:100000000C942A000C943C000C943C000C943C0092
:100010000C943E000C943C000C943C000C943C006E
:100020000C943C000C943C000C943C000C943C0060
:100030000C943C000C943C000C943C000C943C0050
:100040000C943C000C943C000C943C000C943C0040
:100050000C943C0011241FBECFE5D4E0DEBFCDBF21
:1000600010E0A0E6B0E001C01D92A136B107E1F7B3
:100070000E9463000C946D000C9400001F920F927C
:100080000FB60F9211248F93809160008F5F809341
:1000900060008B3751F485B3893011F415BA03C071
:1000A00085B38F5F85BB109260008F910F900FBE5C
:1000B0000F901F90189585B5846885BD14BC89B7CD
:1000C000806489BF089584B38F6084BB85B3807FCB
:0E00D00085BB78940E945B00FFCFF894FFCFB1
:00000001FF
