:100000000C942A000C943C000C943C000C943C0092
:100010000C943C000C943C000C943C000C943C0070
:100020000C943C000C943C000C943C000C943C0060
:100030000C943C000C943C000C943C000C943C0050
:100040000C943C000C943C000C943C000C943E003E
:100050000C943C0011241FBECFE5D4E0DEBFCDBF21
:1000600010E0A0E6B0E001C01D92A136B107E1F7B3
:100070000E9462000C9469000C9400001F920F9281
:100080000FB60F9211248F939F93809160008F5F22
:1000900080936000823031F498B380E1892788BB77
:1000A000109260009F918F910F900FBE0F901F9044
:1000B000189593B79B6893BF12BE8CBF89B78260B7
:1000C00089BF0895BC9AC4988AEF0E945900789419
:0600D000FFCFF894FFCF02
:00000001FF
