:100000000C942A000C9434000C9434000C943400AA
:100010000C9434000C9434000C9434000C94340090
:100020000C9434000C9434000C9434000C94340080
:100030000C9434000C9434000C9434000C94340070
:100040000C9434000C9434000C9436000C9434005E
:100050000C94340011241FBECFE5D4E0DEBFCDBF29
:100060000E9458000C945F000C9400001F920F92A5
:100070000FB60F9211248F9385B3893011F415BAFE
:1000800003C085B38F5F85BB8F910F900FBE0F901C
:100090001F9018958FB78F778FBF8BB780628BBFFC
:1000A000BA9884B78F7B84BF8FB780688FBF08955D
:1000B00084B38F6084BB15BA0E944A00FFCFF894C6
:0200C000FFCF70
:00000001FF
