:100000000C942A000C9434000C9434000C943400AA
:100010000C9434000C9434000C9434000C94340090
:100020000C9434000C9434000C9434000C94340080
:100030000C9434000C9434000C9434000C94340070
:100040000C9434000C9434000C9434000C94340060
:100050000C94340011241FBECFE5D4E0DEBFCDBF29
:100060000E9436000C945A000C940000D09884B37F
:100070008F6084BB15BA80E030E0C89BFECFEBE414
:10008000FDE13197F1F700C00000C89B10C095B3A7
:100090009F70993029F485B3807F85BB832F07C07B
:1000A0008F5F95B3282F2F70907F922B95BBC899A7
:0800B000FECFE3CFF894FFCF6F
:00000001FF
